{
  "_format": "hh-sol-artifact-1",
  "contractName": "DappBooking",
  "sourceName": "contracts/DappBnb.sol",
  "abi": [
    {
      "inputs": [
        {
          "internalType": "uint256",
          "name": "_taxPercent",
          "type": "uint256"
        },
        {
          "internalType": "uint256",
          "name": "_securityFee",
          "type": "uint256"
        }
      ],
      "stateMutability": "nonpayable",
      "type": "constructor"
    },
    {
      "anonymous": false,
      "inputs": [
        {
          "indexed": true,
          "internalType": "address",
          "name": "previousOwner",
          "type": "address"
        },
        {
          "indexed": true,
          "internalType": "address",
          "name": "newOwner",
          "type": "address"
        }
      ],
      "name": "OwnershipTransferred",
      "type": "event"
    },
    {
      "inputs": [
        {
          "internalType": "uint256",
          "name": "aid",
          "type": "uint256"
        },
        {
          "internalType": "string",
          "name": "comment",
          "type": "string"
        }
      ],
      "name": "addReview",
      "outputs": [],
      "stateMutability": "nonpayable",
      "type": "function"
    },
    {
      "inputs": [
        {
          "internalType": "uint256",
          "name": "aid",
          "type": "uint256"
        },
        {
          "internalType": "uint256[]",
          "name": "dates",
          "type": "uint256[]"
        }
      ],
      "name": "bookApartment",
      "outputs": [],
      "stateMutability": "payable",
      "type": "function"
    },
    {
      "inputs": [
        {
          "internalType": "uint256",
          "name": "aid",
          "type": "uint256"
        },
        {
          "internalType": "uint256",
          "name": "bookingId",
          "type": "uint256"
        }
      ],
      "name": "checkInApartment",
      "outputs": [],
      "stateMutability": "nonpayable",
      "type": "function"
    },
    {
      "inputs": [
        {
          "internalType": "uint256",
          "name": "aid",
          "type": "uint256"
        },
        {
          "internalType": "uint256",
          "name": "bookingId",
          "type": "uint256"
        }
      ],
      "name": "claimFunds",
      "outputs": [],
      "stateMutability": "nonpayable",
      "type": "function"
    },
    {
      "inputs": [
        {
          "internalType": "string",
          "name": "name",
          "type": "string"
        },
        {
          "internalType": "string",
          "name": "description",
          "type": "string"
        },
        {
          "internalType": "string",
          "name": "location",
          "type": "string"
        },
        {
          "internalType": "string",
          "name": "images",
          "type": "string"
        },
        {
          "internalType": "uint256",
          "name": "rooms",
          "type": "uint256"
        },
        {
          "internalType": "uint256",
          "name": "price",
          "type": "uint256"
        }
      ],
      "name": "createAppartment",
      "outputs": [],
      "stateMutability": "nonpayable",
      "type": "function"
    },
    {
      "inputs": [
        {
          "internalType": "uint256",
          "name": "id",
          "type": "uint256"
        }
      ],
      "name": "deleteAppartment",
      "outputs": [],
      "stateMutability": "nonpayable",
      "type": "function"
    },
    {
      "inputs": [
        {
          "internalType": "uint256",
          "name": "id",
          "type": "uint256"
        }
      ],
      "name": "getApartment",
      "outputs": [
        {
          "components": [
            {
              "internalType": "uint256",
              "name": "id",
              "type": "uint256"
            },
            {
              "internalType": "string",
              "name": "name",
              "type": "string"
            },
            {
              "internalType": "string",
              "name": "description",
              "type": "string"
            },
            {
              "internalType": "string",
              "name": "location",
              "type": "string"
            },
            {
              "internalType": "string",
              "name": "images",
              "type": "string"
            },
            {
              "internalType": "uint256",
              "name": "rooms",
              "type": "uint256"
            },
            {
              "internalType": "uint256",
              "name": "price",
              "type": "uint256"
            },
            {
              "internalType": "address",
              "name": "owner",
              "type": "address"
            },
            {
              "internalType": "bool",
              "name": "booked",
              "type": "bool"
            },
            {
              "internalType": "bool",
              "name": "deleted",
              "type": "bool"
            },
            {
              "internalType": "uint256",
              "name": "timestamp",
              "type": "uint256"
            }
          ],
          "internalType": "struct DappBooking.ApartmentStruct",
          "name": "",
          "type": "tuple"
        }
      ],
      "stateMutability": "view",
      "type": "function"
    },
    {
      "inputs": [],
      "name": "getApartments",
      "outputs": [
        {
          "components": [
            {
              "internalType": "uint256",
              "name": "id",
              "type": "uint256"
            },
            {
              "internalType": "string",
              "name": "name",
              "type": "string"
            },
            {
              "internalType": "string",
              "name": "description",
              "type": "string"
            },
            {
              "internalType": "string",
              "name": "location",
              "type": "string"
            },
            {
              "internalType": "string",
              "name": "images",
              "type": "string"
            },
            {
              "internalType": "uint256",
              "name": "rooms",
              "type": "uint256"
            },
            {
              "internalType": "uint256",
              "name": "price",
              "type": "uint256"
            },
            {
              "internalType": "address",
              "name": "owner",
              "type": "address"
            },
            {
              "internalType": "bool",
              "name": "booked",
              "type": "bool"
            },
            {
              "internalType": "bool",
              "name": "deleted",
              "type": "bool"
            },
            {
              "internalType": "uint256",
              "name": "timestamp",
              "type": "uint256"
            }
          ],
          "internalType": "struct DappBooking.ApartmentStruct[]",
          "name": "Apartments",
          "type": "tuple[]"
        }
      ],
      "stateMutability": "view",
      "type": "function"
    },
    {
      "inputs": [
        {
          "internalType": "uint256",
          "name": "aid",
          "type": "uint256"
        },
        {
          "internalType": "uint256",
          "name": "bookingId",
          "type": "uint256"
        }
      ],
      "name": "getBookings",
      "outputs": [
        {
          "components": [
            {
              "internalType": "uint256",
              "name": "id",
              "type": "uint256"
            },
            {
              "internalType": "uint256",
              "name": "aid",
              "type": "uint256"
            },
            {
              "internalType": "address",
              "name": "tenant",
              "type": "address"
            },
            {
              "internalType": "uint256",
              "name": "date",
              "type": "uint256"
            },
            {
              "internalType": "uint256",
              "name": "price",
              "type": "uint256"
            },
            {
              "internalType": "bool",
              "name": "checked",
              "type": "bool"
            },
            {
              "internalType": "bool",
              "name": "cancelled",
              "type": "bool"
            }
          ],
          "internalType": "struct DappBooking.BookingStruct",
          "name": "",
          "type": "tuple"
        }
      ],
      "stateMutability": "view",
      "type": "function"
    },
    {
      "inputs": [
        {
          "internalType": "uint256",
          "name": "aid",
          "type": "uint256"
        }
      ],
      "name": "getBookings",
      "outputs": [
        {
          "components": [
            {
              "internalType": "uint256",
              "name": "id",
              "type": "uint256"
            },
            {
              "internalType": "uint256",
              "name": "aid",
              "type": "uint256"
            },
            {
              "internalType": "address",
              "name": "tenant",
              "type": "address"
            },
            {
              "internalType": "uint256",
              "name": "date",
              "type": "uint256"
            },
            {
              "internalType": "uint256",
              "name": "price",
              "type": "uint256"
            },
            {
              "internalType": "bool",
              "name": "checked",
              "type": "bool"
            },
            {
              "internalType": "bool",
              "name": "cancelled",
              "type": "bool"
            }
          ],
          "internalType": "struct DappBooking.BookingStruct[]",
          "name": "",
          "type": "tuple[]"
        }
      ],
      "stateMutability": "view",
      "type": "function"
    },
    {
      "inputs": [
        {
          "internalType": "uint256",
          "name": "aid",
          "type": "uint256"
        }
      ],
      "name": "getQualifiedReviewers",
      "outputs": [
        {
          "internalType": "address[]",
          "name": "Tenants",
          "type": "address[]"
        }
      ],
      "stateMutability": "view",
      "type": "function"
    },
    {
      "inputs": [
        {
          "internalType": "uint256",
          "name": "aid",
          "type": "uint256"
        }
      ],
      "name": "getReviews",
      "outputs": [
        {
          "components": [
            {
              "internalType": "uint256",
              "name": "id",
              "type": "uint256"
            },
            {
              "internalType": "uint256",
              "name": "aid",
              "type": "uint256"
            },
            {
              "internalType": "string",
              "name": "reviewText",
              "type": "string"
            },
            {
              "internalType": "uint256",
              "name": "timeStamp",
              "type": "uint256"
            },
            {
              "internalType": "address",
              "name": "owner",
              "type": "address"
            }
          ],
          "internalType": "struct DappBooking.ReviewStruct[]",
          "name": "",
          "type": "tuple[]"
        }
      ],
      "stateMutability": "view",
      "type": "function"
    },
    {
      "inputs": [
        {
          "internalType": "uint256",
          "name": "aid",
          "type": "uint256"
        }
      ],
      "name": "getUnavaibaleDates",
      "outputs": [
        {
          "internalType": "uint256[]",
          "name": "",
          "type": "uint256[]"
        }
      ],
      "stateMutability": "view",
      "type": "function"
    },
    {
      "inputs": [],
      "name": "owner",
      "outputs": [
        {
          "internalType": "address",
          "name": "",
          "type": "address"
        }
      ],
      "stateMutability": "view",
      "type": "function"
    },
    {
      "inputs": [
        {
          "internalType": "uint256",
          "name": "aid",
          "type": "uint256"
        },
        {
          "internalType": "uint256",
          "name": "bookingId",
          "type": "uint256"
        }
      ],
      "name": "refundBooking",
      "outputs": [],
      "stateMutability": "nonpayable",
      "type": "function"
    },
    {
      "inputs": [],
      "name": "renounceOwnership",
      "outputs": [],
      "stateMutability": "nonpayable",
      "type": "function"
    },
    {
      "inputs": [],
      "name": "securityFee",
      "outputs": [
        {
          "internalType": "uint256",
          "name": "",
          "type": "uint256"
        }
      ],
      "stateMutability": "view",
      "type": "function"
    },
    {
      "inputs": [],
      "name": "taxPercent",
      "outputs": [
        {
          "internalType": "uint256",
          "name": "",
          "type": "uint256"
        }
      ],
      "stateMutability": "view",
      "type": "function"
    },
    {
      "inputs": [
        {
          "internalType": "uint256",
          "name": "aid",
          "type": "uint256"
        }
      ],
      "name": "tenantBooked",
      "outputs": [
        {
          "internalType": "bool",
          "name": "",
          "type": "bool"
        }
      ],
      "stateMutability": "view",
      "type": "function"
    },
    {
      "inputs": [
        {
          "internalType": "address",
          "name": "newOwner",
          "type": "address"
        }
      ],
      "name": "transferOwnership",
      "outputs": [],
      "stateMutability": "nonpayable",
      "type": "function"
    },
    {
      "inputs": [
        {
          "internalType": "uint256",
          "name": "id",
          "type": "uint256"
        },
        {
          "internalType": "string",
          "name": "name",
          "type": "string"
        },
        {
          "internalType": "string",
          "name": "description",
          "type": "string"
        },
        {
          "internalType": "string",
          "name": "location",
          "type": "string"
        },
        {
          "internalType": "string",
          "name": "images",
          "type": "string"
        },
        {
          "internalType": "uint256",
          "name": "rooms",
          "type": "uint256"
        },
        {
          "internalType": "uint256",
          "name": "price",
          "type": "uint256"
        }
      ],
      "name": "updateAppartment",
      "outputs": [],
      "stateMutability": "nonpayable",
      "type": "function"
    }
  ],
  "bytecode": "0x60806040523480156200001157600080fd5b50604051620033fd380380620033fd8339810160408190526200003491620000a2565b6200003f3362000052565b60018055600491909155600355620000c7565b600080546001600160a01b038381166001600160a01b0319831681178455604051919092169283917f8be0079c531659141344cd1fd0a4f28419497f9722a3daafe3b4186f6b6457e09190a35050565b60008060408385031215620000b657600080fd5b505080516020909101519092909150565b61332680620000d76000396000f3fe60806040526004361061012a5760003560e01c80639d4a2255116100ab578063d57a7b541161006f578063d57a7b5414610389578063d68e1302146103a9578063dec30d39146103bf578063df6e0222146103df578063f2fde38b146103f2578063f40109951461041257600080fd5b80639d4a2255146102a25780639f31a2be146102cf578063b1c980991461031a578063bdfdee761461033c578063c4452e061461035c57600080fd5b80637088c0c4116100f25780637088c0c4146101f4578063715018a6146102215780637541f41c1461023657806378419f611461025a5780638da5cb5b1461027a57600080fd5b8063010b58ee1461012f5780630bb9ce331461015157806345993a38146101875780635bb0c5d6146101b457806367626e5d146101d4575b600080fd5b34801561013b57600080fd5b5061014f61014a3660046129d4565b61043f565b005b34801561015d57600080fd5b5061017161016c3660046129f6565b61068a565b60405161017e9190612a0f565b60405180910390f35b34801561019357600080fd5b506101a76101a23660046129d4565b610831565b60405161017e9190612aaa565b3480156101c057600080fd5b5061014f6101cf366004612b6f565b6108d5565b3480156101e057600080fd5b5061014f6101ef3660046129d4565b610ad9565b34801561020057600080fd5b5061021461020f3660046129f6565b610e9e565b60405161017e9190612bb6565b34801561022d57600080fd5b5061014f610f00565b34801561024257600080fd5b5061024c60045481565b60405190815260200161017e565b34801561026657600080fd5b5061014f6102753660046129d4565b610f14565b34801561028657600080fd5b506000546040516001600160a01b03909116815260200161017e565b3480156102ae57600080fd5b506102c26102bd3660046129f6565b6110d4565b60405161017e9190612c34565b3480156102db57600080fd5b5061030a6102ea3660046129f6565b336000908152600b60209081526040808320938352929052205460ff1690565b604051901515815260200161017e565b34801561032657600080fd5b5061032f61120f565b60405161017e9190612d9f565b34801561034857600080fd5b5061014f610357366004612e01565b6115ef565b34801561036857600080fd5b5061037c6103773660046129f6565b611c24565b60405161017e9190612ecb565b34801561039557600080fd5b5061014f6103a4366004612ee5565b611ef8565b3480156103b557600080fd5b5061024c60035481565b3480156103cb57600080fd5b5061014f6103da3660046129f6565b61220e565b61014f6103ed366004612fa4565b6122d7565b3480156103fe57600080fd5b5061014f61040d366004613056565b6125c4565b34801561041e57600080fd5b5061043261042d3660046129f6565b61263d565b60405161017e919061307f565b6104476126f8565b6000828152600660205260408120805483908110610467576104676130c1565b600091825260208083206040805160e08101825260069094029091018054845260018101548484015260028101546001600160a01b0390811685840152600382015460608601526004820154608086015260059182015460ff808216151560a088015261010090910416151560c0860152888652925290922060070154909250339116148061050057506000546001600160a01b031633145b6105255760405162461bcd60e51b815260040161051c906130d7565b60405180910390fd5b8060a001511561056c5760405162461bcd60e51b815260206004820152601260248201527120b63932b0b23c9031b432b1b5b2b21034b760711b604482015260640161051c565b610574612751565b8160600151106105d55760405162461bcd60e51b815260206004820152602660248201527f4e6f7420616c6c6f776564202c626f6f6b696e672064617465206e6f7420657860448201526518d95959195960d21b606482015260840161051c565b6000606460045483608001516105eb919061311a565b6105f59190613131565b905060006064600354846080015161060d919061311a565b6106179190613131565b6000868152600560205260409020600701546080850151919250610651916001600160a01b039091169061064c908590613153565b612770565b61066c6106666000546001600160a01b031690565b83612770565b61067a836040015182612770565b50505061068660018055565b5050565b60606000805b60008481526006602052604090205481116107015760008481526006602052604090208054829081106106c5576106c56130c1565b600091825260209091206005600690920201015460ff16156106ef57816106eb81613166565b9250505b806106f981613166565b915050610690565b508067ffffffffffffffff81111561071b5761071b612ab8565b604051908082528060200260200182016040528015610744578160200160208202803683370190505b5091506000805b6000858152600660205260409020548111610829576000858152600660205260409020805482908110610780576107806130c1565b600091825260209091206005600690920201015460ff16156108175760008581526006602052604090208054829081106107bc576107bc6130c1565b60009182526020909120600260069092020101546001600160a01b031684836107e481613166565b9450815181106107f6576107f66130c1565b60200260200101906001600160a01b031690816001600160a01b0316815250505b8061082181613166565b91505061074b565b505050919050565b610839612923565b6000838152600660205260409020805483908110610859576108596130c1565b60009182526020918290206040805160e08101825260069093029091018054835260018101549383019390935260028301546001600160a01b031690820152600382015460608201526004820154608082015260059091015460ff808216151560a084015261010090910416151560c082015290505b92915050565b60008281526008602052604090205460ff166109335760405162461bcd60e51b815260206004820152601760248201527f4170706172746d656e74206e6f7420617661696c616265000000000000000000604482015260640161051c565b336000908152600b6020908152604080832085845290915290205460ff1661099d5760405162461bcd60e51b815260206004820152601860248201527f426f6f6b206669727374206265666f7265207265766965770000000000000000604482015260640161051c565b60008151116109ee5760405162461bcd60e51b815260206004820152601760248201527f436f6d6d656e742063616e6e6f7420626520656d707479000000000000000000604482015260640161051c565b610a296040518060a001604052806000815260200160008152602001606081526020016000815260200160006001600160a01b031681525090565b60008381526007602090815260409091205482528101839052336080820152610a50612751565b6060820152600083815260076020908152604080832080546001818101835591855293839020855160059095020193845591840151918301919091558201518291906002820190610aa19082613207565b5060608201516003820155608090910151600490910180546001600160a01b0319166001600160a01b03909216919091179055505050565b610ae16126f8565b6000828152600660205260408120805483908110610b0157610b016130c1565b60009182526020918290206040805160e08101825260069093029091018054835260018101549383019390935260028301546001600160a01b031690820152600382015460608201526004820154608082015260059091015460ff80821615801560a085015261010090920416151560c0830152909150610bb95760405162461bcd60e51b815260206004820152601260248201527120b63932b0b23c9031b432b1b5b2b21024b760711b604482015260640161051c565b6000838152600a602090815260408083206060850151845290915290205460ff16610c185760405162461bcd60e51b815260206004820152600f60248201526e11185d19481b9bdd08189bdbdad959608a1b604482015260640161051c565b6000546001600160a01b03163314610cea5780604001516001600160a01b0316336001600160a01b031614610c855760405162461bcd60e51b8152602060048201526013602482015272556e417574686f72697a656420456e7469747960681b604482015260640161051c565b610c8d612751565b816060015111610cea5760405162461bcd60e51b815260206004820152602260248201527f4e6f7420616c6c6f7765642e20657863656564656420626f6f6b696e67206461604482015261746560f01b606482015260840161051c565b600083815260066020526040902080546001919084908110610d0e57610d0e6130c1565b6000918252602080832060056006909302019190910180549315156101000261ff001990941693909317909255848152600a82526040808220606085015183528352808220805460ff19169055858252600990925290812054610d7390600190613153565b60008581526009602052604081208054929350909183908110610d9857610d986130c1565b9060005260206000200154905080600960008781526020019081526020016000208581548110610dca57610dca6130c1565b906000526020600020018190555060096000868152602001908152602001600020805480610dfa57610dfa6132c7565b60019003818190600052602060002001600090559055600060646003548560800151610e26919061311a565b610e309190613131565b90506000610e3f600283613131565b600088815260056020526040902060070154909150610e67906001600160a01b031682612770565b610e82610e7c6000546001600160a01b031690565b82612770565b610e90856040015183612770565b505050505061068660018055565b600081815260096020908152604091829020805483518184028101840190945280845260609392830182828015610ef457602002820191906000526020600020905b815481526020019060010190808311610ee0575b50505050509050919050565b610f086127d5565b610f12600061282f565b565b610f1c6126f8565b6000828152600660205260408120805483908110610f3c57610f3c6130c1565b60009182526020918290206040805160e08101825260069093029091018054835260018101549383019390935260028301546001600160a01b0316908201819052600383015460608301526004830154608083015260059092015460ff808216151560a084015261010090910416151560c082015291503314610ff75760405162461bcd60e51b8152602060048201526013602482015272556e617574686f72697a656420456e7469747960681b604482015260640161051c565b8060a00151156110595760405162461bcd60e51b815260206004820152602760248201527f41706172746d656e7420616c726561647920636865636b6564206f6e207468696044820152667320646174652160c81b606482015260840161051c565b60008381526006602052604090208054600191908490811061107d5761107d6130c1565b60009182526020808320600560069093020191909101805493151560ff19948516179055338252600b815260408083208784529091528120805490921660011790915560045460808301516064916105eb9161311a565b606060076000838152602001908152602001600020805480602002602001604051908101604052809291908181526020016000905b8282101561120457838290600052602060002090600502016040518060a001604052908160008201548152602001600182015481526020016002820180546111509061317f565b80601f016020809104026020016040519081016040528092919081815260200182805461117c9061317f565b80156111c95780601f1061119e576101008083540402835291602001916111c9565b820191906000526020600020905b8154815290600101906020018083116111ac57829003601f168201915b505050918352505060038201546020808301919091526004909201546001600160a01b03166040909101529082526001929092019101611109565b505050509050919050565b6060600060015b600254811161125f57600081815260056020526040902060070154600160a81b900460ff1661124d578161124981613166565b9250505b8061125781613166565b915050611216565b508067ffffffffffffffff81111561127957611279612ab8565b6040519080825280602002602001820160405280156112b257816020015b61129f61296d565b8152602001906001900390816112975790505b509150600060015b60025481116115e957600081815260056020526040902060070154600160a81b900460ff166115d75760056000828152602001908152602001600020604051806101600160405290816000820154815260200160018201805461131c9061317f565b80601f01602080910402602001604051908101604052809291908181526020018280546113489061317f565b80156113955780601f1061136a57610100808354040283529160200191611395565b820191906000526020600020905b81548152906001019060200180831161137857829003601f168201915b505050505081526020016002820180546113ae9061317f565b80601f01602080910402602001604051908101604052809291908181526020018280546113da9061317f565b80156114275780601f106113fc57610100808354040283529160200191611427565b820191906000526020600020905b81548152906001019060200180831161140a57829003601f168201915b505050505081526020016003820180546114409061317f565b80601f016020809104026020016040519081016040528092919081815260200182805461146c9061317f565b80156114b95780601f1061148e576101008083540402835291602001916114b9565b820191906000526020600020905b81548152906001019060200180831161149c57829003601f168201915b505050505081526020016004820180546114d29061317f565b80601f01602080910402602001604051908101604052809291908181526020018280546114fe9061317f565b801561154b5780601f106115205761010080835404028352916020019161154b565b820191906000526020600020905b81548152906001019060200180831161152e57829003601f168201915b5050509183525050600582015460208201526006820154604082015260078201546001600160a01b038116606083015260ff600160a01b8204811615156080840152600160a81b90910416151560a082015260089091015460c09091015284518590849081106115bd576115bd6130c1565b602002602001018190525081806115d390613166565b9250505b806115e181613166565b9150506112ba565b50505090565b60008781526008602052604090205460ff1615156001146116495760405162461bcd60e51b8152602060048201526014602482015273105c1c185c9d1b595b9d081b9bdd08199bdd5b9960621b604482015260640161051c565b6000878152600560205260409020600701546001600160a01b031633146116825760405162461bcd60e51b815260040161051c906130d7565b60008651116116ca5760405162461bcd60e51b81526020600482015260146024820152734e616d652063616e6e6f7420626520656d70747960601b604482015260640161051c565b600085511161171b5760405162461bcd60e51b815260206004820152601b60248201527f4465736372697074696f6e2063616e6e6f7420626520656d7074790000000000604482015260640161051c565b60008451116117675760405162461bcd60e51b81526020600482015260186024820152774c6f636174696f6e2063616e6e6f7420626520656d70747960401b604482015260640161051c565b60008351116117b15760405162461bcd60e51b8152602060048201526016602482015275496d616765732063616e6e6f7420626520656d70747960501b604482015260640161051c565b600082116117f85760405162461bcd60e51b8152602060048201526014602482015273526f6f6d732063616e6e6f74206265207a65726f60601b604482015260640161051c565b6000811161183f5760405162461bcd60e51b815260206004820152601460248201527350726f63652063616e6e6f74206265207a65726f60601b604482015260640161051c565b600060056000898152602001908152602001600020604051806101600160405290816000820154815260200160018201805461187a9061317f565b80601f01602080910402602001604051908101604052809291908181526020018280546118a69061317f565b80156118f35780601f106118c8576101008083540402835291602001916118f3565b820191906000526020600020905b8154815290600101906020018083116118d657829003601f168201915b5050505050815260200160028201805461190c9061317f565b80601f01602080910402602001604051908101604052809291908181526020018280546119389061317f565b80156119855780601f1061195a57610100808354040283529160200191611985565b820191906000526020600020905b81548152906001019060200180831161196857829003601f168201915b5050505050815260200160038201805461199e9061317f565b80601f01602080910402602001604051908101604052809291908181526020018280546119ca9061317f565b8015611a175780601f106119ec57610100808354040283529160200191611a17565b820191906000526020600020905b8154815290600101906020018083116119fa57829003601f168201915b50505050508152602001600482018054611a309061317f565b80601f0160208091040260200160405190810160405280929190818152602001828054611a5c9061317f565b8015611aa95780601f10611a7e57610100808354040283529160200191611aa9565b820191906000526020600020905b815481529060010190602001808311611a8c57829003601f168201915b5050509183525050600582810154602080840191909152600684015460408085019190915260078501546001600160a01b03811660608087019190915260ff600160a01b830481161515608080890191909152600160a81b90930416151560a08088019190915260089097015460c0968701528784018f81528884018f90529088018d90529087018b9052948601899052928501879052845160009081529190522082518155905191925082916001820190611b659082613207565b5060408201516002820190611b7a9082613207565b5060608201516003820190611b8f9082613207565b5060808201516004820190611ba49082613207565b5060a0820151600582015560c0820151600682015560e08201516007820180546101008501516101208601511515600160a81b0260ff60a81b19911515600160a01b026001600160a81b03199093166001600160a01b03909516949094179190911716919091179055610140909101516008909101555050505050505050565b611c2c61296d565b600560008381526020019081526020016000206040518061016001604052908160008201548152602001600182018054611c659061317f565b80601f0160208091040260200160405190810160405280929190818152602001828054611c919061317f565b8015611cde5780601f10611cb357610100808354040283529160200191611cde565b820191906000526020600020905b815481529060010190602001808311611cc157829003601f168201915b50505050508152602001600282018054611cf79061317f565b80601f0160208091040260200160405190810160405280929190818152602001828054611d239061317f565b8015611d705780601f10611d4557610100808354040283529160200191611d70565b820191906000526020600020905b815481529060010190602001808311611d5357829003601f168201915b50505050508152602001600382018054611d899061317f565b80601f0160208091040260200160405190810160405280929190818152602001828054611db59061317f565b8015611e025780601f10611dd757610100808354040283529160200191611e02565b820191906000526020600020905b815481529060010190602001808311611de557829003601f168201915b50505050508152602001600482018054611e1b9061317f565b80601f0160208091040260200160405190810160405280929190818152602001828054611e479061317f565b8015611e945780601f10611e6957610100808354040283529160200191611e94565b820191906000526020600020905b815481529060010190602001808311611e7757829003601f168201915b5050509183525050600582015460208201526006820154604082015260078201546001600160a01b038116606083015260ff600160a01b8204811615156080840152600160a81b90910416151560a082015260089091015460c09091015292915050565b6000865111611f405760405162461bcd60e51b81526020600482015260146024820152734e616d652063616e6e6f7420626520656d70747960601b604482015260640161051c565b6000855111611f915760405162461bcd60e51b815260206004820152601b60248201527f4465736372697074696f6e2063616e6e6f7420626520656d7074790000000000604482015260640161051c565b6000845111611fdd5760405162461bcd60e51b81526020600482015260186024820152774c6f636174696f6e2063616e6e6f7420626520656d70747960401b604482015260640161051c565b60008351116120275760405162461bcd60e51b8152602060048201526016602482015275496d616765732063616e6e6f7420626520656d70747960501b604482015260640161051c565b6000821161206e5760405162461bcd60e51b8152602060048201526014602482015273526f6f6d732063616e6e6f74206265207a65726f60601b604482015260640161051c565b600081116120b55760405162461bcd60e51b815260206004820152601460248201527350726f63652063616e6e6f74206265207a65726f60601b604482015260640161051c565b6120c3600280546001019055565b6120cb61296d565b60025481526020810187905260408101869052606081018590526080810184905260a0810183905260c081018290523360e0820152612108612751565b61014082015280516000908152600860209081526040808320805460ff1916600190811790915584518452600583529220835181559083015183928201906121509082613207565b50604082015160028201906121659082613207565b506060820151600382019061217a9082613207565b506080820151600482019061218f9082613207565b5060a0820151600582015560c0820151600682015560e08201516007820180546101008501516101208601511515600160a81b0260ff60a81b19911515600160a01b026001600160a81b03199093166001600160a01b039095169490941791909117169190911790556101409091015160089091015550505050505050565b60008181526008602052604090205460ff1615156001146122685760405162461bcd60e51b8152602060048201526014602482015273105c1c185c9d1b595b9d081b9bdd08199bdd5b9960621b604482015260640161051c565b6000818152600560205260409020600701546001600160a01b031633146122a15760405162461bcd60e51b815260040161051c906130d7565b6000908152600860209081526040808320805460ff1916905560059091529020600701805460ff60a81b1916600160a81b179055565b805160008381526005602052604081206006015490916122f69161311a565b9050600060646003548361230a919061311a565b6123149190613131565b60008581526008602052604090205490915060ff1661236c5760405162461bcd60e51b815260206004820152601460248201527341706172746d656e74206e6f7420666f756e642160601b604482015260640161051c565b61237681836132dd565b3410156123b95760405162461bcd60e51b8152602060048201526011602482015270125b9cdd59999a58da595b9d08199d5b99607a1b604482015260640161051c565b6123c3848461287f565b61240f5760405162461bcd60e51b815260206004820152601e60248201527f4f6e65206f72206d6f72652064617473206e6f7420617661696c61626c650000604482015260640161051c565b60005b83518110156125bd57612423612923565b600086815260066020908152604091829020548352820187905233908201528451859083908110612456576124566130c1565b60209081029190910181015160608301908152600088815260058084526040808320600690810154608088019081528c85528187528285208054600181810183559187528887208a51919094029093019283558888015190830155828801516002830180546001600160a01b039092166001600160a01b0319909216919091179055945160038201559351600485015560a086015193909101805460c087015115156101000261ff00199515159590951661ffff199091161793909317909255888152600990925290208551869084908110612534576125346130c1565b602090810291909101810151825460018181018555600094855283852090910191909155888352600a9091526040822087519192909188908690811061257c5761257c6130c1565b6020026020010151815260200190815260200160002060006101000a81548160ff0219169083151502179055505080806125b590613166565b915050612412565b5050505050565b6125cc6127d5565b6001600160a01b0381166126315760405162461bcd60e51b815260206004820152602660248201527f4f776e61626c653a206e6577206f776e657220697320746865207a65726f206160448201526564647265737360d01b606482015260840161051c565b61263a8161282f565b50565b606060066000838152602001908152602001600020805480602002602001604051908101604052809291908181526020016000905b828210156112045760008481526020908190206040805160e08101825260068602909201805483526001808201548486015260028201546001600160a01b03169284019290925260038101546060840152600481015460808401526005015460ff808216151560a085015261010090910416151560c08301529083529092019101612672565b60026001540361274a5760405162461bcd60e51b815260206004820152601f60248201527f5265656e7472616e637947756172643a207265656e7472616e742063616c6c00604482015260640161051c565b6002600155565b600061275f426103e861311a565b61276b906103e86132dd565b905090565b6000826001600160a01b03168260405160006040518083038185875af1925050503d80600081146127bd576040519150601f19603f3d011682016040523d82523d6000602084013e6127c2565b606091505b50509050806127d057600080fd5b505050565b6000546001600160a01b03163314610f125760405162461bcd60e51b815260206004820181905260248201527f4f776e61626c653a2063616c6c6572206973206e6f7420746865206f776e6572604482015260640161051c565b600080546001600160a01b038381166001600160a01b0319831681178455604051919092169283917f8be0079c531659141344cd1fd0a4f28419497f9722a3daafe3b4186f6b6457e09190a35050565b60006001815b835181101561291b5760005b6000868152600960205260409020548110156129085760008681526009602052604090208054829081106128c7576128c76130c1565b90600052602060002001548583815181106128e4576128e46130c1565b6020026020010151036128f657600092505b8061290081613166565b915050612891565b508061291381613166565b915050612885565b509392505050565b6040518060e00160405280600081526020016000815260200160006001600160a01b0316815260200160008152602001600081526020016000151581526020016000151581525090565b6040518061016001604052806000815260200160608152602001606081526020016060815260200160608152602001600081526020016000815260200160006001600160a01b03168152602001600015158152602001600015158152602001600081525090565b600080604083850312156129e757600080fd5b50508035926020909101359150565b600060208284031215612a0857600080fd5b5035919050565b6020808252825182820181905260009190848201906040850190845b81811015612a505783516001600160a01b031683529284019291840191600101612a2b565b50909695505050505050565b80518252602080820151908301526040808201516001600160a01b031690830152606080820151908301526080808201519083015260a08082015115159083015260c0908101511515910152565b60e081016108cf8284612a5c565b634e487b7160e01b600052604160045260246000fd5b604051601f8201601f1916810167ffffffffffffffff81118282101715612af757612af7612ab8565b604052919050565b600082601f830112612b1057600080fd5b813567ffffffffffffffff811115612b2a57612b2a612ab8565b612b3d601f8201601f1916602001612ace565b818152846020838601011115612b5257600080fd5b816020850160208301376000918101602001919091529392505050565b60008060408385031215612b8257600080fd5b82359150602083013567ffffffffffffffff811115612ba057600080fd5b612bac85828601612aff565b9150509250929050565b6020808252825182820181905260009190848201906040850190845b81811015612a5057835183529284019291840191600101612bd2565b6000815180845260005b81811015612c1457602081850181015186830182015201612bf8565b506000602082860101526020601f19601f83011685010191505092915050565b60006020808301818452808551808352604092508286019150828160051b87010184880160005b83811015612cc457603f19898403018552815160a0815185528882015189860152878201518189870152612c9182870182612bee565b606084810151908801526080938401516001600160a01b0316939096019290925250509386019390860190600101612c5b565b509098975050505050505050565b6000610160825184526020830151816020860152612cf282860182612bee565b91505060408301518482036040860152612d0c8282612bee565b91505060608301518482036060860152612d268282612bee565b91505060808301518482036080860152612d408282612bee565b91505060a083015160a085015260c083015160c085015260e0830151612d7160e08601826001600160a01b03169052565b5061010083810151151590850152610120808401511515908501526101409283015192909301919091525090565b6000602080830181845280855180835260408601915060408160051b870101925083870160005b82811015612df457603f19888603018452612de2858351612cd2565b94509285019290850190600101612dc6565b5092979650505050505050565b600080600080600080600060e0888a031215612e1c57600080fd5b87359650602088013567ffffffffffffffff80821115612e3b57600080fd5b612e478b838c01612aff565b975060408a0135915080821115612e5d57600080fd5b612e698b838c01612aff565b965060608a0135915080821115612e7f57600080fd5b612e8b8b838c01612aff565b955060808a0135915080821115612ea157600080fd5b50612eae8a828b01612aff565b93505060a0880135915060c0880135905092959891949750929550565b602081526000612ede6020830184612cd2565b9392505050565b60008060008060008060c08789031215612efe57600080fd5b863567ffffffffffffffff80821115612f1657600080fd5b612f228a838b01612aff565b97506020890135915080821115612f3857600080fd5b612f448a838b01612aff565b96506040890135915080821115612f5a57600080fd5b612f668a838b01612aff565b95506060890135915080821115612f7c57600080fd5b50612f8989828a01612aff565b9350506080870135915060a087013590509295509295509295565b60008060408385031215612fb757600080fd5b8235915060208084013567ffffffffffffffff80821115612fd757600080fd5b818601915086601f830112612feb57600080fd5b813581811115612ffd57612ffd612ab8565b8060051b915061300e848301612ace565b818152918301840191848101908984111561302857600080fd5b938501935b838510156130465784358252938501939085019061302d565b8096505050505050509250929050565b60006020828403121561306857600080fd5b81356001600160a01b0381168114612ede57600080fd5b6020808252825182820181905260009190848201906040850190845b81811015612a50576130ae838551612a5c565b9284019260e0929092019160010161309b565b634e487b7160e01b600052603260045260246000fd5b602080825260139082015272556e617574686f72697a656420656e7469747960681b604082015260600190565b634e487b7160e01b600052601160045260246000fd5b80820281158282048414176108cf576108cf613104565b60008261314e57634e487b7160e01b600052601260045260246000fd5b500490565b818103818111156108cf576108cf613104565b60006001820161317857613178613104565b5060010190565b600181811c9082168061319357607f821691505b6020821081036131b357634e487b7160e01b600052602260045260246000fd5b50919050565b601f8211156127d057600081815260208120601f850160051c810160208610156131e05750805b601f850160051c820191505b818110156131ff578281556001016131ec565b505050505050565b815167ffffffffffffffff81111561322157613221612ab8565b6132358161322f845461317f565b846131b9565b602080601f83116001811461326a57600084156132525750858301515b600019600386901b1c1916600185901b1785556131ff565b600085815260208120601f198616915b828110156132995788860151825594840194600190910190840161327a565b50858210156132b75787850151600019600388901b60f8161c191681555b5050505050600190811b01905550565b634e487b7160e01b600052603160045260246000fd5b808201808211156108cf576108cf61310456fea2646970667358221220b888766afca1ba62d51be10651ebd45e932a435b35b15925e30bf5e19e21830e64736f6c63430008130033",
  "linkReferences": {},
  "deployedLinkReferences": {}
}